{
  "contractName": "Lottery",
  "abi": [
    {
      "inputs": [],
      "payable": false,
      "stateMutability": "nonpayable",
      "type": "constructor"
    },
    {
      "anonymous": false,
      "inputs": [
        {
          "indexed": false,
          "internalType": "uint256",
          "name": "index",
          "type": "uint256"
        },
        {
          "indexed": false,
          "internalType": "address",
          "name": "bettor",
          "type": "address"
        },
        {
          "indexed": false,
          "internalType": "uint256",
          "name": "amount",
          "type": "uint256"
        },
        {
          "indexed": false,
          "internalType": "bytes32",
          "name": "challenges",
          "type": "bytes32"
        },
        {
          "indexed": false,
          "internalType": "uint256",
          "name": "answerBlockNumber",
          "type": "uint256"
        }
      ],
      "name": "BET",
      "type": "event"
    },
    {
      "anonymous": false,
      "inputs": [
        {
          "indexed": false,
          "internalType": "uint256",
          "name": "index",
          "type": "uint256"
        },
        {
          "indexed": false,
          "internalType": "address",
          "name": "bettor",
          "type": "address"
        },
        {
          "indexed": false,
          "internalType": "uint256",
          "name": "amount",
          "type": "uint256"
        },
        {
          "indexed": false,
          "internalType": "bytes32",
          "name": "challenges",
          "type": "bytes32"
        },
        {
          "indexed": false,
          "internalType": "bytes32",
          "name": "answer",
          "type": "bytes32"
        },
        {
          "indexed": false,
          "internalType": "uint256",
          "name": "answerBlockNumber",
          "type": "uint256"
        }
      ],
      "name": "DRAW",
      "type": "event"
    },
    {
      "anonymous": false,
      "inputs": [
        {
          "indexed": false,
          "internalType": "uint256",
          "name": "index",
          "type": "uint256"
        },
        {
          "indexed": false,
          "internalType": "address",
          "name": "bettor",
          "type": "address"
        },
        {
          "indexed": false,
          "internalType": "uint256",
          "name": "amount",
          "type": "uint256"
        },
        {
          "indexed": false,
          "internalType": "bytes32",
          "name": "challenges",
          "type": "bytes32"
        },
        {
          "indexed": false,
          "internalType": "bytes32",
          "name": "answer",
          "type": "bytes32"
        },
        {
          "indexed": false,
          "internalType": "uint256",
          "name": "answerBlockNumber",
          "type": "uint256"
        }
      ],
      "name": "FAIL",
      "type": "event"
    },
    {
      "anonymous": false,
      "inputs": [
        {
          "indexed": false,
          "internalType": "uint256",
          "name": "index",
          "type": "uint256"
        },
        {
          "indexed": false,
          "internalType": "address",
          "name": "bettor",
          "type": "address"
        },
        {
          "indexed": false,
          "internalType": "uint256",
          "name": "amount",
          "type": "uint256"
        },
        {
          "indexed": false,
          "internalType": "bytes32",
          "name": "challenges",
          "type": "bytes32"
        },
        {
          "indexed": false,
          "internalType": "uint256",
          "name": "answerBlockNumber",
          "type": "uint256"
        }
      ],
      "name": "REFUND",
      "type": "event"
    },
    {
      "anonymous": false,
      "inputs": [
        {
          "indexed": false,
          "internalType": "uint256",
          "name": "index",
          "type": "uint256"
        },
        {
          "indexed": false,
          "internalType": "address",
          "name": "bettor",
          "type": "address"
        },
        {
          "indexed": false,
          "internalType": "uint256",
          "name": "amount",
          "type": "uint256"
        },
        {
          "indexed": false,
          "internalType": "bytes32",
          "name": "challenges",
          "type": "bytes32"
        },
        {
          "indexed": false,
          "internalType": "bytes32",
          "name": "answer",
          "type": "bytes32"
        },
        {
          "indexed": false,
          "internalType": "uint256",
          "name": "answerBlockNumber",
          "type": "uint256"
        }
      ],
      "name": "WIN",
      "type": "event"
    },
    {
      "constant": true,
      "inputs": [],
      "name": "answerForTest",
      "outputs": [
        {
          "internalType": "bytes32",
          "name": "",
          "type": "bytes32"
        }
      ],
      "payable": false,
      "stateMutability": "view",
      "type": "function"
    },
    {
      "constant": true,
      "inputs": [],
      "name": "owner",
      "outputs": [
        {
          "internalType": "address payable",
          "name": "",
          "type": "address"
        }
      ],
      "payable": false,
      "stateMutability": "view",
      "type": "function"
    },
    {
      "constant": true,
      "inputs": [],
      "name": "getPot",
      "outputs": [
        {
          "internalType": "uint256",
          "name": "pot",
          "type": "uint256"
        }
      ],
      "payable": false,
      "stateMutability": "view",
      "type": "function"
    },
    {
      "constant": false,
      "inputs": [],
      "name": "distribute",
      "outputs": [],
      "payable": false,
      "stateMutability": "nonpayable",
      "type": "function"
    },
    {
      "constant": false,
      "inputs": [
        {
          "internalType": "bytes32",
          "name": "answer",
          "type": "bytes32"
        }
      ],
      "name": "setAnswerForTest",
      "outputs": [
        {
          "internalType": "bool",
          "name": "result",
          "type": "bool"
        }
      ],
      "payable": false,
      "stateMutability": "nonpayable",
      "type": "function"
    },
    {
      "constant": true,
      "inputs": [
        {
          "internalType": "bytes32",
          "name": "challenges",
          "type": "bytes32"
        },
        {
          "internalType": "bytes32",
          "name": "answer",
          "type": "bytes32"
        }
      ],
      "name": "isMatch",
      "outputs": [
        {
          "internalType": "enum Lottery.BettingResult",
          "name": "",
          "type": "uint8"
        }
      ],
      "payable": false,
      "stateMutability": "pure",
      "type": "function"
    },
    {
      "constant": true,
      "inputs": [
        {
          "internalType": "uint256",
          "name": "index",
          "type": "uint256"
        }
      ],
      "name": "getBetInfo",
      "outputs": [
        {
          "internalType": "uint256",
          "name": "answerBlockNumber",
          "type": "uint256"
        },
        {
          "internalType": "address",
          "name": "bettor",
          "type": "address"
        },
        {
          "internalType": "bytes32",
          "name": "challenges",
          "type": "bytes32"
        }
      ],
      "payable": false,
      "stateMutability": "view",
      "type": "function"
    }
  ],
  "bytecode": "0x60806040526000600560006101000a81548160ff02191690831515021790555034801561002b57600080fd5b50336000806101000a81548173ffffffffffffffffffffffffffffffffffffffff021916908373ffffffffffffffffffffffffffffffffffffffff160217905550610c178061007b6000396000f3fe608060405234801561001057600080fd5b506004361061007d5760003560e01c806384f7e4f01161005b57806384f7e4f0146101625780638da5cb5b14610180578063c79f3804146101ca578063e4fc6b6d146102245761007d565b8063403c9fa8146100825780637009fa36146100a057806379141f80146100e6575b600080fd5b61008a61022e565b6040518082815260200191505060405180910390f35b6100cc600480360360208110156100b657600080fd5b8101908080359060200190929190505050610238565b604051808215151515815260200191505060405180910390f35b610112600480360360208110156100fc57600080fd5b81019080803590602001909291905050506102ef565b604051808481526020018373ffffffffffffffffffffffffffffffffffffffff1673ffffffffffffffffffffffffffffffffffffffff168152602001828152602001935050505060405180910390f35b61016a6103a3565b6040518082815260200191505060405180910390f35b6101886103a9565b604051808273ffffffffffffffffffffffffffffffffffffffff1673ffffffffffffffffffffffffffffffffffffffff16815260200191505060405180910390f35b610200600480360360408110156101e057600080fd5b8101908080359060200190929190803590602001909291905050506103ce565b6040518082600281111561021057fe5b60ff16815260200191505060405180910390f35b61022c6104cd565b005b6000600454905090565b60008060009054906101000a900473ffffffffffffffffffffffffffffffffffffffff1673ffffffffffffffffffffffffffffffffffffffff163373ffffffffffffffffffffffffffffffffffffffff16146102df576040517f08c379a000000000000000000000000000000000000000000000000000000000815260040180806020018281038252602b815260200180610bb8602b913960400191505060405180910390fd5b8160068190555060019050919050565b60008060006102fc610b7d565b60036000868152602001908152602001600020604051806060016040529081600082015481526020016001820160009054906101000a900473ffffffffffffffffffffffffffffffffffffffff1673ffffffffffffffffffffffffffffffffffffffff1673ffffffffffffffffffffffffffffffffffffffff1681526020016002820154815250509050806000015193508060200151925080604001519150509193909250565b60065481565b6000809054906101000a900473ffffffffffffffffffffffffffffffffffffffff1681565b60008083905060008490506000846000602081106103e857fe5b1a60f81b7effffffffffffffffffffffffffffffffffffffffffffffffffffffffffffff1916905060008560006020811061041f57fe5b1a60f81b7effffffffffffffffffffffffffffffffffffffffffffffffffffffffffffff19169050600484901c9350600484901b9350600482901c9150600482901b9150600483901c9250600483901b9250600481901c9050600481901b9050838214801561048d57508281145b1561049f5760019450505050506104c7565b838214806104ac57508281145b156104be5760029450505050506104c7565b60009450505050505b92915050565b6000806104d8610b7d565b60008060025494505b6001548510156109d75760036000868152602001908152602001600020604051806060016040529081600082015481526020016001820160009054906101000a900473ffffffffffffffffffffffffffffffffffffffff1673ffffffffffffffffffffffffffffffffffffffff1673ffffffffffffffffffffffffffffffffffffffff168152602001600282015481525050925061058283600001516109e5565b91506000600281111561059157fe5b82600281111561059d57fe5b14156108d75760006105b28460000151610a35565b90506105c28460400151826103ce565b9150600160028111156105d157fe5b8260028111156105dd57fe5b14156106d0576105fc84602001516611c37937e0800060045401610a5d565b945060006004819055507fc4126c621d6137adc3f4ab7b1301a6b58700239f6cf061cc8d19570d8099cbc48685602001518787604001518560006020811061064057fe5b1a60f81b8960000151604051808781526020018673ffffffffffffffffffffffffffffffffffffffff1673ffffffffffffffffffffffffffffffffffffffff168152602001858152602001848152602001837effffffffffffffffffffffffffffffffffffffffffffffffffffffffffffff19168152602001828152602001965050505050505060405180910390a15b600060028111156106dd57fe5b8260028111156106e957fe5b14156107d1576611c37937e080006004600082825401925050819055507f156b27674a9d3a434dcf3bbb68a2417fdccf15dab2f4882725b8d5d700aed766868560200151600087604001518560006020811061074157fe5b1a60f81b8960000151604051808781526020018673ffffffffffffffffffffffffffffffffffffffff1673ffffffffffffffffffffffffffffffffffffffff168152602001858152602001848152602001837effffffffffffffffffffffffffffffffffffffffffffffffffffffffffffff19168152602001828152602001965050505050505060405180910390a15b600160028111156107de57fe5b8260028111156107ea57fe5b14156108d55761080984602001516611c37937e0800060045401610a5d565b94507f9a3b4dda21e9bbd860af21efdd349ea704d7240a0c6014190969285c906f974b8685602001518787604001518560006020811061084557fe5b1a60f81b8960000151604051808781526020018673ffffffffffffffffffffffffffffffffffffffff1673ffffffffffffffffffffffffffffffffffffffff168152602001858152602001848152602001837effffffffffffffffffffffffffffffffffffffffffffffffffffffffffffff19168152602001828152602001965050505050505060405180910390a15b505b600160028111156108e457fe5b8260028111156108f057fe5b14156108fb576109d7565b60028081111561090757fe5b82600281111561091357fe5b14156109c05761092e83602001516611c37937e08000610a5d565b93507fa88a4c2d12ce24191a453a5f07147bdfe9495fcbb541f86e9f86bb858576c8b18584602001518686604001518760000151604051808681526020018573ffffffffffffffffffffffffffffffffffffffff1673ffffffffffffffffffffffffffffffffffffffff1681526020018481526020018381526020018281526020019550505050505060405180910390a15b6109c985610b25565b5084806001019550506104e1565b846002819055505050505050565b600081431180156109f95750816101000143105b15610a075760009050610a30565b814311610a175760019050610a30565b61010082014310610a2b5760029050610a30565b600290505b919050565b6000600560009054906101000a900460ff16610a5357600654610a56565b81405b9050919050565b60008060009050600081840390508473ffffffffffffffffffffffffffffffffffffffff166108fc829081150290604051600060405180830381858888f19350505050158015610ab1573d6000803e3d6000fd5b506000809054906101000a900473ffffffffffffffffffffffffffffffffffffffff1673ffffffffffffffffffffffffffffffffffffffff166108fc839081150290604051600060405180830381858888f19350505050158015610b19573d6000803e3d6000fd5b50809250505092915050565b6000600360008381526020019081526020016000206000808201600090556001820160006101000a81549073ffffffffffffffffffffffffffffffffffffffff02191690556002820160009055505060019050919050565b604051806060016040528060008152602001600073ffffffffffffffffffffffffffffffffffffffff16815260200160008019168152509056fe4f6e6c79206f776e65722063616e207365742074686520616e7377657220666f722074657374206d6f6465a265627a7a72315820d5cda3e684ece454179b7eb06269560090f3e00cc963e829906456f2200f04ab64736f6c63430005100032",
  "source": "// SPDX-License-Identifier: MIT\npragma solidity >=0.4.22 <0.9.0;\n\ncontract Lottery {\n \n struct BetInfo {\n uint256 answerBlockNumber;\n // 맞춘 사람에게 돈을 보내줘야 한다\n address payable bettor;\n bytes32 challenges;\n }\n\n address payable public owner;\n\n // 도메인 설계!!\n uint256 private _tail;\n uint256 private _head;\n mapping (uint => BetInfo) private _bets;\n\n // 블록 개수 제한 = 256개\n uint256 constant internal BLOCK_LIMIT = 256;\n\n // Block 간격은 3개이다\n uint256 constant internal BET_BLOCK_INTERVAL = 3;\n\n // 0.005 ETH = 5 * 10 ** 15 WEI, 5 ETH = 5 * 10 ** 18 WEI\n uint256 constant internal BET_AMOUNT = 5 * 10 ** 15;\n\n // 팟머니 모아둘 공간 필요\n uint256 private _pot;\n bool private mode = false; // false : test mode, true : use real block hash\n bytes32 public answerForTest;\n\n enum BlockStatus{checkable, NotRevealed, BlockLimitPassed}\n enum BettingResult{Fail, Win, Draw}\n\n event BET(uint256 index, address bettor, uint256 amount, bytes32 challenges, uint256 answerBlockNumber);\n event WIN(uint256 index, address bettor, uint256 amount, bytes32 challenges, bytes32 answer, uint256 answerBlockNumber);\n event FAIL(uint256 index, address bettor, uint256 amount, bytes32 challenges, bytes32 answer, uint256 answerBlockNumber);\n event DRAW(uint256 index, address bettor, uint256 amount, bytes32 challenges, bytes32 answer, uint256 answerBlockNumber);\n event REFUND(uint256 index, address bettor, uint256 amount, bytes32 challenges, uint256 answerBlockNumber);\n // 가장 처음 배포가 되는 함수\n constructor() public {\n owner = msg.sender;\n }\n\n function getPot() public view returns (uint256 pot) {\n // _pot에 있는 돈을 bettor의 address에 전송\n // smart contract의 변수를 줘야 하는 수식어는 view가 들어가야 한다\n return _pot;\n }\n\n // Bet\n\n // queue에서 bet 정보를 확인하고 돈이 제대로 들어왔는지도 확인\n // Save the bet to queue\n\n function bet(bytes32 challenges) internal returns (bool result) {\n // Check the proper ether is sent\n require(msg.value == BET_AMOUNT, \"Not enough ETH\");\n\n // Push bet to the queue\n require(pushBet(challenges), \"Fail to add a new Bet Info\");\n\n // Emit event\n emit BET(_tail - 1, msg.sender, msg.value, challenges, block.number + BET_BLOCK_INTERVAL);\n\n return true;\n }\n /**\n * @dev 베팅 결과값을 확인 하고 팟머니를 분배한다.\n * 정답 실패 : 팟머니 축적, 정답 맞춤 : 팟머니 획득, 한 글자 맞춤 or 정답 확인 불가 : 베팅 금액만 획득\n */\n // Distribute\n function distribute() public {\n // head 3 4 5 6 7 8 9 10 11 12 tail - queue\n uint256 cur;\n uint256 transferAmount;\n\n BetInfo memory b;\n BlockStatus currentBlockStatus;\n BettingResult currentBettingResult;\n\n for(cur=_head;cur<_tail;cur++) {\n b = _bets[cur];\n currentBlockStatus = getBlockStatus(b.answerBlockNumber);\n\n // 1. Checkable : block.number > answerBlockNumber && block.number < BLOCK_LIMIT + answerBlockNumber\n if(currentBlockStatus == BlockStatus.checkable) {\n bytes32 answerBlockHash = getAnswerBlockHash(b.answerBlockNumber);\n currentBettingResult = isMatch(b.challenges, answerBlockHash);\n\n // if win, bettor gets pot\n if(currentBettingResult == BettingResult.Win) {\n // transfer pot\n transferAmount = transferAfterPayingFee(b.bettor, _pot + BET_AMOUNT);\n\n // pot = 0\n _pot = 0;\n\n // emit WIN\n emit WIN(cur, b.bettor, transferAmount, b.challenges, answerBlockHash[0], b.answerBlockNumber);\n }\n // if fail, bettor's money goes pot\n if(currentBettingResult == BettingResult.Fail) {\n // pot = pot + BET_AMOUNT\n _pot += BET_AMOUNT;\n\n // emit FAIL\n emit FAIL(cur, b.bettor, 0, b.challenges, answerBlockHash[0], b.answerBlockNumber);\n }\n // if draw, refund bettor's money\n if(currentBettingResult == BettingResult.Win) {\n // transfer only BET_AMOUNT\n transferAmount = transferAfterPayingFee(b.bettor, _pot + BET_AMOUNT);\n\n // emit DRAW\n emit DRAW(cur, b.bettor, transferAmount, b.challenges, answerBlockHash[0], b.answerBlockNumber);\n }\n }\n\n // 2. Not Revealed : block.number <= answerBlockNumber\n if(currentBlockStatus == BlockStatus.NotRevealed) {\n break;\n }\n // 3. Block Limit Passed : block.number >= answerBlockNumber + BLOCK_LIMIT\n if(currentBlockStatus == BlockStatus.BlockLimitPassed) {\n // refund\n transferAmount = transferAfterPayingFee(b.bettor, BET_AMOUNT);\n // emit refund\n emit REFUND(cur, b.bettor, transferAmount, b.challenges, b.answerBlockNumber);\n }\n \n popBet(cur);\n }\n _head = cur;\n }\n function transferAfterPayingFee(address payable addr, uint256 amount) internal returns (uint256) {\n \n // uint256 fee = amount / 100;\n uint256 fee = 0;\n uint256 amountWithoutFee = amount - fee;\n\n // transfer to addr\n addr.transfer(amountWithoutFee);\n\n // transfer to owner\n owner.transfer(fee);\n\n // 이더를 전송하는 방법 3가지 \n // -> call(단순히 이더보내는 것 뿐만 아니라 다른 S.C에 특정 Function 호출할 때 사용, 되도록 이더 전송 때는 사용 노노)\n // -> send(실패하면 False로 Return)\n // -> transfer(딱 이더만 던져주고 실패하면 S.C 자체를 Fail 시켜버린다 = 가장 안정적)\n\n return amountWithoutFee;\n }\n\n function setAnswerForTest(bytes32 answer) public returns (bool result) {\n require(msg.sender == owner, \"Only owner can set the answer for test mode\");\n answerForTest = answer;\n return true;\n }\n\n function getAnswerBlockHash(uint256 answerBlockNumber) internal view returns (bytes32 answer) {\n return mode ? blockhash(answerBlockNumber) : answerForTest;\n }\n\n /**\n * @dev 베팅글자와 정답을 확인한다\n * @param challenges 베팅 글자\n * @param answer 블럭 해쉬\n * @return 정답결과\n */\n function isMatch(bytes32 challenges, bytes32 answer) public pure returns (BettingResult) {\n // challenges 0xab\n // answer 0xab... ff 32 bytes\n\n bytes32 c1 = challenges;\n bytes32 c2 = challenges;\n\n bytes32 a1 = answer[0];\n bytes32 a2 = answer[0];\n\n // Get First Number\n c1 = c1 >> 4;\n c1 = c1 << 4;\n\n a1 = a1 >> 4;\n a1 = a1 << 4;\n\n // Get Second Number\n c2 = c2 >> 4;\n c2 = c2 << 4;\n\n a2 = a2 >> 4;\n a2 = a2 << 4;\n\n if(a1 == c1 && a2 == c2) {\n return BettingResult.Win;\n }\n\n if(a1 == c1 || a2 == c2) {\n return BettingResult.Draw;\n }\n\n return BettingResult.Fail;\n }\n\n function getBlockStatus(uint256 answerBlockNumber) internal view returns (BlockStatus) {\n if(block.number > answerBlockNumber && block.number < BLOCK_LIMIT + answerBlockNumber) {\n return BlockStatus.checkable;\n }\n\n if(block.number <= answerBlockNumber) {\n return BlockStatus.NotRevealed;\n }\n\n if(block.number >= answerBlockNumber + BLOCK_LIMIT) {\n return BlockStatus.BlockLimitPassed;\n }\n\n return BlockStatus.BlockLimitPassed;\n }\n // Check the answer\n // 맞으면 돈 다 주고 틀리면 돈 가져가는 판단 필요\n\n function getBetInfo(uint256 index) public view returns (uint256 answerBlockNumber, address bettor, bytes32 challenges) {\n BetInfo memory b = _bets[index];\n answerBlockNumber = b.answerBlockNumber;\n bettor = b.bettor;\n challenges = b.challenges;\n }\n\n function pushBet(bytes32 challenges) internal returns (bool) {\n BetInfo memory b;\n b.bettor = msg.sender;\n b.answerBlockNumber = block.number + BET_BLOCK_INTERVAL;\n b.challenges = challenges;\n\n _bets[_tail] = b;\n _tail++;\n\n return true;\n }\n\n function popBet(uint256 index) internal returns (bool) {\n // delete: 값을 초기화해서 Gas를 돌려받는다 = 데이터를 더이상 저장하지 않는다\n delete _bets[index];\n\n return true;\n }\n}\n\n// Dapp 설계 방법\n// 1. 지갑 관리 - Hot Wallet & Cold Wallet\n// 2. 아키텍쳐 a. smart contract - front (Data를 모두 s.c에 넣으면 유연하게 대처 X)\n// b. smart contract - server - front (중요도에 따라 DB를 나눠서 저장할 수 있다)\n// 3. Code a. 코드 실행하는 데 돈이 든다 (디도스 공격 막을 수 있다)\n// b. 권한 관리\n// c. 비즈니스 로직 업데이트 (s.c의 단점 중 하나: 업데이트)\n// d. Data Migration\n// 4. 운영 a. public - test.net -> main.net\n// b. private\n\n",
  "sourcePath": "/Users/chugyohyeon/Desktop/Developer/Blockchain_Ethereum_Study/Lottery_Dapp/contracts/Lottery.sol",
  "compiler": {
    "name": "solc",
    "version": "0.5.16+commit.9c3226ce.Emscripten.clang"
  },
  "schemaVersion": "3.4.3",
  "updatedAt": "2021-09-13T07:43:10.264Z",
  "networkType": "ethereum",
  "devdoc": {
    "methods": {
      "distribute()": {
        "details": "베팅 결과값을 확인 하고 팟머니를 분배한다. 정답 실패 : 팟머니 축적, 정답 맞춤 : 팟머니 획득, 한 글자 맞춤 or 정답 확인 불가 : 베팅 금액만 획득"
      },
      "isMatch(bytes32,bytes32)": {
        "details": "베팅글자와 정답을 확인한다",
        "params": {
          "answer": "블럭 해쉬",
          "challenges": "베팅 글자"
        },
        "return": "정답결과"
      }
    }
  },
  "userdoc": {
    "methods": {}
  }
}