{
  "contractName": "Lottery",
  "abi": [
    {
      "inputs": [],
      "payable": false,
      "stateMutability": "nonpayable",
      "type": "constructor"
    },
    {
      "anonymous": false,
      "inputs": [
        {
          "indexed": false,
          "internalType": "uint256",
          "name": "index",
          "type": "uint256"
        },
        {
          "indexed": false,
          "internalType": "address",
          "name": "bettor",
          "type": "address"
        },
        {
          "indexed": false,
          "internalType": "uint256",
          "name": "amount",
          "type": "uint256"
        },
        {
          "indexed": false,
          "internalType": "bytes32",
          "name": "challenges",
          "type": "bytes32"
        },
        {
          "indexed": false,
          "internalType": "uint256",
          "name": "answerBlockNumber",
          "type": "uint256"
        }
      ],
      "name": "BET",
      "type": "event"
    },
    {
      "constant": true,
      "inputs": [],
      "name": "owner",
      "outputs": [
        {
          "internalType": "address",
          "name": "",
          "type": "address"
        }
      ],
      "payable": false,
      "stateMutability": "view",
      "type": "function"
    },
    {
      "constant": true,
      "inputs": [],
      "name": "getPot",
      "outputs": [
        {
          "internalType": "uint256",
          "name": "pot",
          "type": "uint256"
        }
      ],
      "payable": false,
      "stateMutability": "view",
      "type": "function"
    },
    {
      "constant": false,
      "inputs": [],
      "name": "distribute",
      "outputs": [],
      "payable": false,
      "stateMutability": "nonpayable",
      "type": "function"
    },
    {
      "constant": true,
      "inputs": [
        {
          "internalType": "bytes32",
          "name": "challenges",
          "type": "bytes32"
        },
        {
          "internalType": "bytes32",
          "name": "answer",
          "type": "bytes32"
        }
      ],
      "name": "isMatch",
      "outputs": [
        {
          "internalType": "enum Lottery.BettingResult",
          "name": "",
          "type": "uint8"
        }
      ],
      "payable": false,
      "stateMutability": "pure",
      "type": "function"
    },
    {
      "constant": true,
      "inputs": [
        {
          "internalType": "uint256",
          "name": "index",
          "type": "uint256"
        }
      ],
      "name": "getBetInfo",
      "outputs": [
        {
          "internalType": "uint256",
          "name": "answerBlockNumber",
          "type": "uint256"
        },
        {
          "internalType": "address",
          "name": "bettor",
          "type": "address"
        },
        {
          "internalType": "bytes32",
          "name": "challenges",
          "type": "bytes32"
        }
      ],
      "payable": false,
      "stateMutability": "view",
      "type": "function"
    }
  ],
  "bytecode": "0x608060405234801561001057600080fd5b50336000806101000a81548173ffffffffffffffffffffffffffffffffffffffff021916908373ffffffffffffffffffffffffffffffffffffffff1602179055506105c7806100606000396000f3fe608060405234801561001057600080fd5b50600436106100575760003560e01c8063403c9fa81461005c57806379141f801461007a5780638da5cb5b146100f6578063c79f380414610140578063e4fc6b6d1461019a575b600080fd5b6100646101a4565b6040518082815260200191505060405180910390f35b6100a66004803603602081101561009057600080fd5b81019080803590602001909291905050506101ae565b604051808481526020018373ffffffffffffffffffffffffffffffffffffffff1673ffffffffffffffffffffffffffffffffffffffff168152602001828152602001935050505060405180910390f35b6100fe610262565b604051808273ffffffffffffffffffffffffffffffffffffffff1673ffffffffffffffffffffffffffffffffffffffff16815260200191505060405180910390f35b6101766004803603604081101561015657600080fd5b810190808035906020019092919080359060200190929190505050610287565b6040518082600281111561018657fe5b60ff16815260200191505060405180910390f35b6101a2610386565b005b6000600454905090565b60008060006101bb610558565b60036000868152602001908152602001600020604051806060016040529081600082015481526020016001820160009054906101000a900473ffffffffffffffffffffffffffffffffffffffff1673ffffffffffffffffffffffffffffffffffffffff1673ffffffffffffffffffffffffffffffffffffffff1681526020016002820154815250509050806000015193508060200151925080604001519150509193909250565b6000809054906101000a900473ffffffffffffffffffffffffffffffffffffffff1681565b60008083905060008490506000846000602081106102a157fe5b1a60f81b7effffffffffffffffffffffffffffffffffffffffffffffffffffffffffffff191690506000856000602081106102d857fe5b1a60f81b7effffffffffffffffffffffffffffffffffffffffffffffffffffffffffffff19169050600484901c9350600484901b9350600482901c9150600482901b9150600483901c9250600483901b9250600481901c9050600481901b9050838214801561034657508281145b15610358576001945050505050610380565b8382148061036557508281145b15610377576002945050505050610380565b60009450505050505b92915050565b6000610390610558565b600060025492505b6001548310156104ab5760036000848152602001908152602001600020604051806060016040529081600082015481526020016001820160009054906101000a900473ffffffffffffffffffffffffffffffffffffffff1673ffffffffffffffffffffffffffffffffffffffff1673ffffffffffffffffffffffffffffffffffffffff168152602001600282015481525050915061043982600001516104b0565b90506000600281111561044857fe5b81600281111561045457fe5b50506001600281111561046357fe5b81600281111561046f57fe5b141561047a576104ab565b60028081111561048657fe5b81600281111561049257fe5b505061049d83610500565b508280600101935050610398565b505050565b600081431180156104c45750816101000143105b156104d257600090506104fb565b8143116104e257600190506104fb565b610100820143106104f657600290506104fb565b600290505b919050565b6000600360008381526020019081526020016000206000808201600090556001820160006101000a81549073ffffffffffffffffffffffffffffffffffffffff02191690556002820160009055505060019050919050565b604051806060016040528060008152602001600073ffffffffffffffffffffffffffffffffffffffff16815260200160008019168152509056fea265627a7a72315820a7ca1d6f14771ade8fe4c76d57b42785ad2c66f2328c07ed3d417127603df50864736f6c63430005100032",
  "source": "// SPDX-License-Identifier: MIT\npragma solidity >=0.4.22 <0.9.0;\n\ncontract Lottery {\n    \n    struct BetInfo {\n        uint256 answerBlockNumber;\n        // 맞춘 사람에게 돈을 보내줘야 한다\n        address payable bettor;\n        bytes32 challenges;\n    }\n\n    address public owner;\n\n    // 도메인 설계!!\n    uint256 private _tail;\n    uint256 private _head;\n    mapping (uint => BetInfo) private _bets;\n\n    // 블록 개수 제한 = 256개\n    uint256 constant internal BLOCK_LIMIT = 256;\n\n    // Block 간격은 3개이다\n    uint256 constant internal BET_BLOCK_INTERVAL = 3;\n\n    // 0.005 ETH = 5 * 10 ** 15 WEI, 5 ETH = 5 * 10 ** 18 WEI\n    uint256 constant internal BET_AMOUNT = 5 * 10 ** 15;\n\n    // 팟머니 모아둘 공간 필요\n    uint256 private _pot;\n\n    enum BlockStatus{checkable, NotRevealed, BlockLimitPassed}\n    enum BettingResult{Fail, Win, Draw}\n\n    event BET(uint256 index, address bettor, uint256 amount, bytes32 challenges, uint256 answerBlockNumber);\n\n    // 가장 처음 배포가 되는 함수\n    constructor() public {\n        owner = msg.sender;\n    }\n\n    function getPot() public view returns (uint256 pot) {\n        // _pot에 있는 돈을 bettor의 address에 전송\n        // smart contract의 변수를 줘야 하는 수식어는 view가 들어가야 한다\n        return _pot;\n    }\n\n    // Bet\n\n      // queue에서 bet 정보를 확인하고 돈이 제대로 들어왔는지도 확인\n      // Save the bet to queue\n\n    function bet(bytes32 challenges) internal returns (bool result) {\n        // Check the proper ether is sent\n        require(msg.value == BET_AMOUNT, \"Not enough ETH\");\n\n        // Push bet to the queue\n        require(pushBet(challenges), \"Fail to add a new Bet Info\");\n\n        // Emit event\n        emit BET(_tail - 1, msg.sender, msg.value, challenges, block.number + BET_BLOCK_INTERVAL);\n\n        return true;\n    }\n\n    // Distribute\n    function distribute() public {\n        // head 3 4 5 6 7 8 9 10 11 12 tail - queue\n        uint256 cur;\n        BetInfo memory b;\n        BlockStatus currentBlockStatus;\n\n        for(cur=_head;cur<_tail;cur++) {\n            b = _bets[cur];\n            currentBlockStatus = getBlockStatus(b.answerBlockNumber);\n\n            // 1. Checkable : block.number > answerBlockNumber && block.number < BLOCK_LIMIT + answerBlockNumber\n            if(currentBlockStatus == BlockStatus.checkable) {\n                // if win, bettor gets pot\n\n                // if fail, bettor's money goes pot\n\n                // if draw, refund bettor's money\n\n            }\n\n            // 2. Not Revealed : block.number <= answerBlockNumber\n            if(currentBlockStatus == BlockStatus.NotRevealed) {\n                break;\n            }\n            // 3. Block Limit Passed : block.number >= answerBlockNumber + BLOCK_LIMIT\n            if(currentBlockStatus == BlockStatus.BlockLimitPassed) {\n                // refund\n                // emit refund\n            }\n            \n            popBet(cur);\n        }\n    }\n\n    function isMatch(bytes32 challenges, bytes32 answer) public pure returns (BettingResult) {\n        // challenges 0xab\n        // answer 0xab... ff 32 bytes\n\n        bytes32 c1 = challenges;\n        bytes32 c2 = challenges;\n\n        bytes32 a1 = answer[0];\n        bytes32 a2 = answer[0];\n\n        // Get First Number\n        c1 = c1 >> 4;\n        c1 = c1 << 4;\n\n        a1 = a1 >> 4;\n        a1 = a1 << 4;\n\n        // Get Second Number\n        c2 = c2 >> 4;\n        c2 = c2 << 4;\n\n        a2 = a2 >> 4;\n        a2 = a2 << 4;\n\n        if(a1 == c1 && a2 == c2) {\n            return BettingResult.Win;\n        }\n\n        if(a1 == c1 || a2 == c2) {\n            return BettingResult.Draw;\n        }\n\n        return BettingResult.Fail;\n    }\n\n    function getBlockStatus(uint256 answerBlockNumber) internal view returns (BlockStatus) {\n        if(block.number > answerBlockNumber && block.number < BLOCK_LIMIT + answerBlockNumber) {\n            return BlockStatus.checkable;\n        }\n\n        if(block.number <= answerBlockNumber) {\n            return BlockStatus.NotRevealed;\n        }\n\n        if(block.number >= answerBlockNumber + BLOCK_LIMIT) {\n            return BlockStatus.BlockLimitPassed;\n        }\n\n        return BlockStatus.BlockLimitPassed;\n    }\n      // Check the answer\n      // 맞으면 돈 다 주고 틀리면 돈 가져가는 판단 필요\n\n    function getBetInfo(uint256 index) public view returns (uint256 answerBlockNumber, address bettor, bytes32 challenges) {\n        BetInfo memory b = _bets[index];\n        answerBlockNumber = b.answerBlockNumber;\n        bettor = b.bettor;\n        challenges = b.challenges;\n    }\n\n    function pushBet(bytes32 challenges) internal returns (bool) {\n        BetInfo memory b;\n        b.bettor = msg.sender;\n        b.answerBlockNumber = block.number + BET_BLOCK_INTERVAL;\n        b.challenges = challenges;\n\n        _bets[_tail] = b;\n        _tail++;\n\n        return true;\n    }\n\n    function popBet(uint256 index) internal returns (bool) {\n        // delete: 값을 초기화해서 Gas를 돌려받는다 = 데이터를 더이상 저장하지 않는다\n        delete _bets[index];\n\n        return true;\n    }\n}\n\n// Dapp 설계 방법\n// 1. 지갑 관리 - Hot Wallet & Cold Wallet\n// 2. 아키텍쳐 a. smart contract - front (Data를 모두 s.c에 넣으면 유연하게 대처 X)\n//           b. smart contract - server - front (중요도에 따라 DB를 나눠서 저장할 수 있다)\n// 3. Code a. 코드 실행하는 데 돈이 든다 (디도스 공격 막을 수 있다)\n//         b. 권한 관리\n//         c. 비즈니스 로직 업데이트 (s.c의 단점 중 하나: 업데이트)\n//         d. Data Migration\n// 4. 운영 a. public - test.net -> main.net\n//        b. private\n\n",
  "sourcePath": "/Users/chugyohyeon/Desktop/Developer/Blockchain_Ethereum_Study/Lottery_Dapp/contracts/Lottery.sol",
  "compiler": {
    "name": "solc",
    "version": "0.5.16+commit.9c3226ce.Emscripten.clang"
  },
  "schemaVersion": "3.4.3",
  "updatedAt": "2021-09-12T07:10:34.124Z",
  "devdoc": {
    "methods": {}
  },
  "userdoc": {
    "methods": {}
  }
}