{
  "contractName": "Lottery",
  "abi": [
    {
      "inputs": [],
      "payable": false,
      "stateMutability": "nonpayable",
      "type": "constructor"
    },
    {
      "anonymous": false,
      "inputs": [
        {
          "indexed": false,
          "internalType": "uint256",
          "name": "index",
          "type": "uint256"
        },
        {
          "indexed": false,
          "internalType": "address",
          "name": "bettor",
          "type": "address"
        },
        {
          "indexed": false,
          "internalType": "uint256",
          "name": "amount",
          "type": "uint256"
        },
        {
          "indexed": false,
          "internalType": "bytes32",
          "name": "challenges",
          "type": "bytes32"
        },
        {
          "indexed": false,
          "internalType": "uint256",
          "name": "answerBlockNumber",
          "type": "uint256"
        }
      ],
      "name": "BET",
      "type": "event"
    },
    {
      "constant": true,
      "inputs": [],
      "name": "owner",
      "outputs": [
        {
          "internalType": "address",
          "name": "",
          "type": "address"
        }
      ],
      "payable": false,
      "stateMutability": "view",
      "type": "function"
    },
    {
      "constant": true,
      "inputs": [],
      "name": "getPot",
      "outputs": [
        {
          "internalType": "uint256",
          "name": "pot",
          "type": "uint256"
        }
      ],
      "payable": false,
      "stateMutability": "view",
      "type": "function"
    },
    {
      "constant": true,
      "inputs": [
        {
          "internalType": "uint256",
          "name": "index",
          "type": "uint256"
        }
      ],
      "name": "getBetInfo",
      "outputs": [
        {
          "internalType": "uint256",
          "name": "answerBlockNumber",
          "type": "uint256"
        },
        {
          "internalType": "address",
          "name": "bettor",
          "type": "address"
        },
        {
          "internalType": "bytes32",
          "name": "challenges",
          "type": "bytes32"
        }
      ],
      "payable": false,
      "stateMutability": "view",
      "type": "function"
    }
  ],
  "bytecode": "0x608060405234801561001057600080fd5b50336000806101000a81548173ffffffffffffffffffffffffffffffffffffffff021916908373ffffffffffffffffffffffffffffffffffffffff16021790555061027c806100606000396000f3fe608060405234801561001057600080fd5b50600436106100415760003560e01c8063403c9fa81461004657806379141f80146100645780638da5cb5b146100e0575b600080fd5b61004e61012a565b6040518082815260200191505060405180910390f35b6100906004803603602081101561007a57600080fd5b8101908080359060200190929190505050610134565b604051808481526020018373ffffffffffffffffffffffffffffffffffffffff1673ffffffffffffffffffffffffffffffffffffffff168152602001828152602001935050505060405180910390f35b6100e86101e8565b604051808273ffffffffffffffffffffffffffffffffffffffff1673ffffffffffffffffffffffffffffffffffffffff16815260200191505060405180910390f35b6000600454905090565b600080600061014161020d565b60036000868152602001908152602001600020604051806060016040529081600082015481526020016001820160009054906101000a900473ffffffffffffffffffffffffffffffffffffffff1673ffffffffffffffffffffffffffffffffffffffff1673ffffffffffffffffffffffffffffffffffffffff1681526020016002820154815250509050806000015193508060200151925080604001519150509193909250565b6000809054906101000a900473ffffffffffffffffffffffffffffffffffffffff1681565b604051806060016040528060008152602001600073ffffffffffffffffffffffffffffffffffffffff16815260200160008019168152509056fea265627a7a723158209f994a32947dba21295f9d39898a68f1f1b1be390b7090c5919880e840a0c85764736f6c63430005100032",
  "source": "// SPDX-License-Identifier: MIT\npragma solidity >=0.4.22 <0.9.0;\n\ncontract Lottery {\n    \n    struct BetInfo {\n        uint256 answerBlockNumber;\n        // 맞춘 사람에게 돈을 보내줘야 한다\n        address payable bettor;\n        bytes32 challenges;\n    }\n\n    address public owner;\n\n    // 도메인 설계!!\n    uint256 private _tail;\n    uint256 private _head;\n    mapping (uint => BetInfo) private _bets;\n\n    // 블록 개수 제한 = 256개\n    uint256 constant internal BLOCK_LIMIT = 256;\n\n    // Block 간격은 3개이다\n    uint256 constant internal BET_BLOCK_INTERVAL = 3;\n\n    // 0.005 ETH = 5 * 10 ** 15 WEI, 5 ETH = 5 * 10 ** 18 WEI\n    uint256 constant internal BET_AMOUNT = 5 * 10 ** 15;\n\n    // 팟머니 모아둘 공간 필요\n    uint256 private _pot;\n\n    event BET(uint256 index, address bettor, uint256 amount, bytes32 challenges, uint256 answerBlockNumber);\n\n    // 가장 처음 배포가 되는 함수\n    constructor() public {\n        owner = msg.sender;\n    }\n\n    function getPot() public view returns (uint256 pot) {\n        // _pot에 있는 돈을 bettor의 address에 전송\n        // smart contract의 변수를 줘야 하는 수식어는 view가 들어가야 한다\n        return _pot;\n    }\n\n    // Bet\n\n      // queue에서 bet 정보를 확인하고 돈이 제대로 들어왔는지도 확인\n      // Save the bet to queue\n\n    function bet(bytes32 challenges) internal returns (bool result) {\n        // Check the proper ether is sent\n        require(msg.value == BET_AMOUNT, \"Not enough ETH\");\n\n        // Push bet to the queue\n        require(pushBet(challenges), \"Fail to add a new Bet Info\");\n\n        // Emit event\n        emit BET(_tail - 1, msg.sender, msg.value, challenges, block.number + BET_BLOCK_INTERVAL);\n\n        return true;\n    }\n\n    // Distribute\n      // Check the answer\n      // 맞으면 돈 다 주고 틀리면 돈 가져가는 판단 필요\n\n    function getBetInfo(uint256 index) public view returns (uint256 answerBlockNumber, address bettor, bytes32 challenges) {\n        BetInfo memory b = _bets[index];\n        answerBlockNumber = b.answerBlockNumber;\n        bettor = b.bettor;\n        challenges = b.challenges;\n    }\n\n    function pushBet(bytes32 challenges) internal returns (bool) {\n        BetInfo memory b;\n        b.bettor = msg.sender;\n        b.answerBlockNumber = block.number + BET_BLOCK_INTERVAL;\n        b.challenges = challenges;\n\n        _bets[_tail] = b;\n        _tail++;\n\n        return true;\n    }\n\n    function popBet(uint256 index) internal returns (bool) {\n        // delete: 값을 초기화해서 Gas를 돌려받는다 = 데이터를 더이상 저장하지 않는다\n        delete _bets[index];\n\n        return true;\n    }\n}\n\n// Dapp 설계 방법\n// 1. 지갑 관리 - Hot Wallet & Cold Wallet\n// 2. 아키텍쳐 a. smart contract - front (Data를 모두 s.c에 넣으면 유연하게 대처 X)\n//           b. smart contract - server - front (중요도에 따라 DB를 나눠서 저장할 수 있다)\n// 3. Code a. 코드 실행하는 데 돈이 든다 (디도스 공격 막을 수 있다)\n//         b. 권한 관리\n//         c. 비즈니스 로직 업데이트 (s.c의 단점 중 하나: 업데이트)\n//         d. Data Migration\n// 4. 운영 a. public - test.net -> main.net\n//        b. private\n\n",
  "sourcePath": "/Users/chugyohyeon/Desktop/Developer/Blockchain_Ethereum_Study/Lottery_Dapp/contracts/Lottery.sol",
  "compiler": {
    "name": "solc",
    "version": "0.5.16+commit.9c3226ce.Emscripten.clang"
  },
  "schemaVersion": "3.4.3",
  "updatedAt": "2021-09-10T14:01:27.473Z",
  "devdoc": {
    "methods": {}
  },
  "userdoc": {
    "methods": {}
  }
}