{
  "contractName": "Lottery",
  "abi": [
    {
      "inputs": [],
      "payable": false,
      "stateMutability": "nonpayable",
      "type": "constructor"
    },
    {
      "constant": true,
      "inputs": [],
      "name": "owner",
      "outputs": [
        {
          "internalType": "address",
          "name": "",
          "type": "address"
        }
      ],
      "payable": false,
      "stateMutability": "view",
      "type": "function"
    },
    {
      "constant": true,
      "inputs": [],
      "name": "getSomeValue",
      "outputs": [
        {
          "internalType": "uint256",
          "name": "value",
          "type": "uint256"
        }
      ],
      "payable": false,
      "stateMutability": "pure",
      "type": "function"
    },
    {
      "constant": true,
      "inputs": [],
      "name": "getPot",
      "outputs": [
        {
          "internalType": "uint256",
          "name": "pot",
          "type": "uint256"
        }
      ],
      "payable": false,
      "stateMutability": "view",
      "type": "function"
    }
  ],
  "bytecode": "0x608060405234801561001057600080fd5b50336000806101000a81548173ffffffffffffffffffffffffffffffffffffffff021916908373ffffffffffffffffffffffffffffffffffffffff16021790555061012e806100606000396000f3fe6080604052348015600f57600080fd5b5060043610603c5760003560e01c8063403c9fa81460415780638da5cb5b14605d578063a40674b71460a5575b600080fd5b604760c1565b6040518082815260200191505060405180910390f35b606360cb565b604051808273ffffffffffffffffffffffffffffffffffffffff1673ffffffffffffffffffffffffffffffffffffffff16815260200191505060405180910390f35b60ab60f0565b6040518082815260200191505060405180910390f35b6000600154905090565b6000809054906101000a900473ffffffffffffffffffffffffffffffffffffffff1681565b6000600590509056fea265627a7a7231582013b7091379b09d14570d14f1e2037e0038a33fc0bf7a4ba18c9bbd7c5852356864736f6c63430005100032",
  "source": "// SPDX-License-Identifier: MIT\npragma solidity >=0.4.22 <0.9.0;\n\ncontract Lottery {\n    \n    struct BetInfo {\n        uint256 answerBlockNumber;\n        // 맞춘 사람에게 돈을 보내줘야 한다\n        address payable better;\n        bytes32 challenges;\n    }\n\n    address public owner;\n\n    // 팟머니 모아둘 공간 필요\n    uint256 private _pot;\n\n    // 가장 처음 배포가 되는 함수\n    constructor() public {\n        owner = msg.sender;\n    }\n\n    function getSomeValue() public pure returns (uint256 value) {\n        return 5;\n    }\n\n    function getPot() public view returns (uint256 pot) {\n        // _pot에 있는 돈을 better의 address에 전송\n        // smart contract의 변수를 줘야 하는 수식어는 view가 들어가야 한다\n        return _pot;\n    }\n}\n\n// Dapp 설계 방법\n// 1. 지갑 관리 - Hot Wallet & Cold Wallet\n// 2. 아키텍쳐 a. smart contract - front (Data를 모두 s.c에 넣으면 유연하게 대처 X)\n//           b. smart contract - server - front (중요도에 따라 DB를 나눠서 저장할 수 있다)\n// 3. Code a. 코드 실행하는 데 돈이 든다 (디도스 공격 막을 수 있다)\n//         b. 권한 관리\n//         c. 비즈니스 로직 업데이트 (s.c의 단점 중 하나: 업데이트)\n//         d. Data Migration\n// 4. 운영 a. public - test.net -> main.net\n//        b. private\n\n",
  "sourcePath": "/Users/chugyohyeon/Desktop/Developer/Blockchain_Ethereum_Study/Lottery_Dapp/contracts/Lottery.sol",
  "compiler": {
    "name": "solc",
    "version": "0.5.16+commit.9c3226ce.Emscripten.clang"
  },
  "schemaVersion": "3.4.3",
  "updatedAt": "2021-09-08T06:27:16.707Z",
  "networkType": "ethereum",
  "devdoc": {
    "methods": {}
  },
  "userdoc": {
    "methods": {}
  }
}