{
  "contractName": "Lottery",
  "abi": [
    {
      "inputs": [],
      "payable": false,
      "stateMutability": "nonpayable",
      "type": "constructor"
    },
    {
      "constant": true,
      "inputs": [],
      "name": "owner",
      "outputs": [
        {
          "internalType": "address",
          "name": "",
          "type": "address"
        }
      ],
      "payable": false,
      "stateMutability": "view",
      "type": "function"
    },
    {
      "constant": true,
      "inputs": [],
      "name": "getPot",
      "outputs": [
        {
          "internalType": "uint256",
          "name": "pot",
          "type": "uint256"
        }
      ],
      "payable": false,
      "stateMutability": "view",
      "type": "function"
    },
    {
      "constant": true,
      "inputs": [
        {
          "internalType": "uint256",
          "name": "index",
          "type": "uint256"
        }
      ],
      "name": "getBetInfo",
      "outputs": [
        {
          "internalType": "uint256",
          "name": "answerBlockNumber",
          "type": "uint256"
        },
        {
          "internalType": "address",
          "name": "bettor",
          "type": "address"
        },
        {
          "internalType": "bytes32",
          "name": "challenges",
          "type": "bytes32"
        }
      ],
      "payable": false,
      "stateMutability": "view",
      "type": "function"
    },
    {
      "constant": false,
      "inputs": [
        {
          "internalType": "bytes32",
          "name": "challenges",
          "type": "bytes32"
        }
      ],
      "name": "pushBet",
      "outputs": [
        {
          "internalType": "bool",
          "name": "",
          "type": "bool"
        }
      ],
      "payable": false,
      "stateMutability": "nonpayable",
      "type": "function"
    },
    {
      "constant": false,
      "inputs": [
        {
          "internalType": "uint256",
          "name": "index",
          "type": "uint256"
        }
      ],
      "name": "popBet",
      "outputs": [
        {
          "internalType": "bool",
          "name": "",
          "type": "bool"
        }
      ],
      "payable": false,
      "stateMutability": "nonpayable",
      "type": "function"
    }
  ],
  "bytecode": "0x608060405234801561001057600080fd5b50336000806101000a81548173ffffffffffffffffffffffffffffffffffffffff021916908373ffffffffffffffffffffffffffffffffffffffff16021790555061045f806100606000396000f3fe608060405234801561001057600080fd5b50600436106100575760003560e01c80631d89a9221461005c578063403c9fa8146100a257806379141f80146100c05780638da5cb5b1461013c578063d04c9a8c14610186575b600080fd5b6100886004803603602081101561007257600080fd5b81019080803590602001909291905050506101cc565b604051808215151515815260200191505060405180910390f35b6100aa6102b5565b6040518082815260200191505060405180910390f35b6100ec600480360360208110156100d657600080fd5b81019080803590602001909291905050506102bf565b604051808481526020018373ffffffffffffffffffffffffffffffffffffffff1673ffffffffffffffffffffffffffffffffffffffff168152602001828152602001935050505060405180910390f35b610144610373565b604051808273ffffffffffffffffffffffffffffffffffffffff1673ffffffffffffffffffffffffffffffffffffffff16815260200191505060405180910390f35b6101b26004803603602081101561019c57600080fd5b8101908080359060200190929190505050610398565b604051808215151515815260200191505060405180910390f35b60006101d66103f0565b33816020019073ffffffffffffffffffffffffffffffffffffffff16908173ffffffffffffffffffffffffffffffffffffffff16815250506003430181600001818152505082816040018181525050806003600060015481526020019081526020016000206000820151816000015560208201518160010160006101000a81548173ffffffffffffffffffffffffffffffffffffffff021916908373ffffffffffffffffffffffffffffffffffffffff160217905550604082015181600201559050506001600081548092919060010191905055506001915050919050565b6000600454905090565b60008060006102cc6103f0565b60036000868152602001908152602001600020604051806060016040529081600082015481526020016001820160009054906101000a900473ffffffffffffffffffffffffffffffffffffffff1673ffffffffffffffffffffffffffffffffffffffff1673ffffffffffffffffffffffffffffffffffffffff1681526020016002820154815250509050806000015193508060200151925080604001519150509193909250565b6000809054906101000a900473ffffffffffffffffffffffffffffffffffffffff1681565b6000600360008381526020019081526020016000206000808201600090556001820160006101000a81549073ffffffffffffffffffffffffffffffffffffffff02191690556002820160009055505060019050919050565b604051806060016040528060008152602001600073ffffffffffffffffffffffffffffffffffffffff16815260200160008019168152509056fea265627a7a72315820e1eaae6dfde8faa6effcfdd10f55f431ca247fb28bc362e4e6d53ba5521eaf0264736f6c63430005100032",
  "source": "// SPDX-License-Identifier: MIT\npragma solidity >=0.4.22 <0.9.0;\n\ncontract Lottery {\n    \n    struct BetInfo {\n        uint256 answerBlockNumber;\n        // 맞춘 사람에게 돈을 보내줘야 한다\n        address payable bettor;\n        bytes32 challenges;\n    }\n\n    address public owner;\n\n    // 도메인 설계!!\n    uint256 private _tail;\n    uint256 private _head;\n    mapping (uint => BetInfo) private _bets;\n\n    // 블록 개수 제한 = 256개\n    uint256 constant internal BLOCK_LIMIT = 256;\n\n    // Block 간격은 3개이다\n    uint256 constant internal BET_BLOCK_INTERVAL = 3;\n\n    // 0.005 ETH = 5 * 10 ** 15 WEI, 5 ETH = 5 * 10 ** 18 WEI\n    uint256 constant internal BET_AMOUNT = 5 * 10 ** 15;\n\n    // 팟머니 모아둘 공간 필요\n    uint256 private _pot;\n    \n    // 가장 처음 배포가 되는 함수\n    constructor() public {\n        owner = msg.sender;\n    }\n\n    function getPot() public view returns (uint256 pot) {\n        // _pot에 있는 돈을 bettor의 address에 전송\n        // smart contract의 변수를 줘야 하는 수식어는 view가 들어가야 한다\n        return _pot;\n    }\n\n    // Bet\n\n      // queue에서 bet 정보를 확인하고 돈이 제대로 들어왔는지도 확인\n      // Save the bet to queue\n\n    // Distribute\n      // Check the answer\n      // 맞으면 돈 다 주고 틀리면 돈 가져가는 판단 필요\n\n    function getBetInfo(uint256 index) public view returns (uint256 answerBlockNumber, address bettor, bytes32 challenges) {\n        BetInfo memory b = _bets[index];\n        answerBlockNumber = b.answerBlockNumber;\n        bettor = b.bettor;\n        challenges = b.challenges;\n    }\n\n    function pushBet(bytes32 challenges) public returns (bool) {\n        BetInfo memory b;\n        b.bettor = msg.sender;\n        b.answerBlockNumber = block.number + BET_BLOCK_INTERVAL;\n        b.challenges = challenges;\n\n        _bets[_tail] = b;\n        _tail++;\n\n        return true;\n    }\n\n    function popBet(uint256 index) public returns (bool) {\n        // delete: 값을 초기화해서 Gas를 돌려받는다 = 데이터를 더이상 저장하지 않는다\n        delete _bets[index];\n\n        return true;\n    }\n}\n\n// Dapp 설계 방법\n// 1. 지갑 관리 - Hot Wallet & Cold Wallet\n// 2. 아키텍쳐 a. smart contract - front (Data를 모두 s.c에 넣으면 유연하게 대처 X)\n//           b. smart contract - server - front (중요도에 따라 DB를 나눠서 저장할 수 있다)\n// 3. Code a. 코드 실행하는 데 돈이 든다 (디도스 공격 막을 수 있다)\n//         b. 권한 관리\n//         c. 비즈니스 로직 업데이트 (s.c의 단점 중 하나: 업데이트)\n//         d. Data Migration\n// 4. 운영 a. public - test.net -> main.net\n//        b. private\n\n",
  "sourcePath": "/Users/chugyohyeon/Desktop/Developer/Blockchain_Ethereum_Study/Lottery_Dapp/contracts/Lottery.sol",
  "compiler": {
    "name": "solc",
    "version": "0.5.16+commit.9c3226ce.Emscripten.clang"
  },
  "schemaVersion": "3.4.3",
  "updatedAt": "2021-09-09T06:50:45.426Z",
  "devdoc": {
    "methods": {}
  },
  "userdoc": {
    "methods": {}
  }
}